:100000000C9434000C9451000C9451000C94510049
:100010000C9451000C9451000C9451000C94DA0390
:100020000C9451000C9451000C9451000C9451000C
:100030000C9451000C9451000C9451000C945100FC
:100040000C9451000C9451000C9400030C9451003A
:100050000C9451000C9451000C9451000C945100DC
:100060000C9451000C94510011241FBECFEFD8E026
:10007000DEBFCDBF12E0A0E0B1E0E6E9FAE002C0E9
:1000800005900D92A63CB107D9F723E0A6ECB2E0AB
:1000900001C01D92AF34B207E1F70E94C5040C9471
:1000A00049050C94000063E08BE290E00E947D0221
:1000B00081E08093F7020895CF93DF93EC01809362
:1000C0000603D09307030E9470036093FC027093B1
:1000D000FD028093FE029093FF026093F8027093FA
:1000E000F9028093FA029093FB0210920003C13050
:1000F000D10579F02297D1F00E94530062E08BE2A3
:1001000090E00E9487028DE191E0DF91CF910C9405
:10011000DF0281E08093F7020E94530062E08BE2ED
:1001200090E00E9487028AE291E0EFCF63E08BE2E9
:1001300090E00E9487021092F70262E08BE290E06A
:100140000E947D028AE491E0E0CF63E08AE290E0E1
:100150000E94680262E08AE290E00E94680244E045
:1001600065E270E084E290E00E9493020E94FD0349
:100170000E94640360E875E280E090E00E94B202B1
:1001800085E090E00E941F058B3AD1F444E050E0F6
:1001900060E070E080E091E00E940F0510920401A1
:1001A00081E691E00E94DF028CE991E00E94DF028B
:1001B0008AEA91E00E94DF0280E090E00C945C000B
:1001C0006BEA85E090E00E94370545E050E060E092
:1001D00070E089E791E00E9427058EE791E0E2CF89
:1001E000CF92DF92EF92FF920F931F93CF93DF9303
:1001F0000F92CDB7DEB70E9470036B017C01CE0178
:1002000001960E94F302811131C080910603909102
:1002100007038130910509F4B1C08230910509F4DA
:1002200037C1892B09F04AC11C9948C10E9470034B
:100230006B017C010E9470036C197D098E099F0976
:100240006233710581059105A8F31C9937C11C9B88
:10025000FECF81E090E00F90DF91CF911F910F9141
:10026000FF90EF90DF90CF900C945C0089810E940A
:10027000D80289818D3019F08A3009F06BC084EB87
:1002800092E00E94DF02E091C602E11509F4B7CFC7
:10029000F0E0E953FD4F108280910603909107032F
:1002A000892B39F089EC91E00E94DF021092C6029E
:1002B000A6CF48E050E06FEE71E087EC92E00E943C
:1002C0000105892B19F088EF91E0EECF6BE370E028
:1002D0008FEC92E00E94ED04009719F483E292E023
:1002E000E3CF9C012F5C3240243051F48C010F5F2E
:1002F0001F4FF80101900020E9F7E550E01719F0D1
:1003000089E492E0D1CF44E050E060E071E08FEC0E
:1003100092E00E940105892B19F08FE592E0C4CF8D
:1003200084E0F801A0E0B1E001900D928A95E1F738
:10033000109204016BEA85E090E00E94370545E0E9
:1003400050E060E070E080E091E00E94270582E7E5
:1003500092E0AACFE091C602EF3248F491E09E0FFE
:100360009093C602F0E0E953FD4F808348CF10928E
:10037000C6028DE892E00E94DF0241CF8091F80230
:100380009091F902A091FA02B091FB029601A701A7
:10039000281B390B4A0B5B0BC901DA018A3F910517
:1003A000A105B105A0F0C092F802D092F902E09246
:1003B000FA02F092FB028091F702811509F45EC007
:1003C00063E08BE290E00E9487021092F702809136
:1003D000FC029091FD02A091FE02B091FF02C81AAA
:1003E000D90AEA0AFB0A80EA92E038E8C31633E148
:1003F000D306E104F10408F046C00E943604182F29
:10040000811509F45BC062E08BE290E00E947D02FE
:100410000E9470036B017C010E9470036C197D09BE
:100420008E099F096035710581059105A8F362E089
:100430008BE290E00E948702E091000381E08E0F42
:1004400080930003F0E0EF5FFC4F1083812F0E9448
:10045000D80280910003843088F11092050384EB68
:1004600092E00E94DF0260E071E081E093E00E9490
:10047000F804892B31F482E090E0EDCE0E94530025
:10048000A6CF8AEA92E00E94DF0280E090E0E3CE0D
:100490008091FC029091FD02A091FE02B091FF02BA
:1004A000C81AD90AEA0AFB0A48EBC4164BE0D4067C
:1004B000E104F10418F086EB92E0E5CF0F90DF91B4
:1004C000CF911F910F91FF90EF90DF90CF90089503
:1004D000FC01908121E001C0220F6A95EAF7922B7E
:1004E00090830895FC01408121E001C0220F6A95AC
:1004F000EAF72095242320830895FC01908121E0D0
:1005000001C0220F6A95EAF7922B908308950C940C
:100510007202FC01908121E001C0220F6A95EAF786
:10052000922790830895CF93DF9300D00F92CDB799
:10053000DEB76A837B834983642F0E947202EA815B
:10054000FB81408161E070E0098002C0660F771F87
:100550000A94E2F7462B40830F900F900F90DF91A3
:10056000CF910895CF93DF939B01AC0184E0220FDC
:10057000331F441F551F8A95D1F760E074E284EF62
:1005800090E00E94CB04E901219788E093E00E946B
:100590002803D093C500C093C4001092C00088E91E
:1005A0008093C10086E08093C200DF91CF910895CF
:1005B0009091C00095FFFCCF8093C6000895CF9323
:1005C000DF93EC018881811103C0DF91CF91089501
:1005D00021968A3019F48DE00E94D802FE018291A2
:1005E0000E94D802EFCFF894BC0188E093E00E940B
:1005F0004F0378940895F89480910A0378940895AD
:100600001F920F920FB60F9211242F933F934F9387
:100610005F936F937F938F939F93AF93BF93EF936A
:10062000FF936091C60088E093E00E943A03FF9137
:10063000EF91BF91AF919F918F917F916F915F915A
:100640004F913F912F910F900FBE0F901F901895D3
:10065000FC011082118212820895FC01928181E0D6
:10066000911180E00895FC01928181E0903408F4BA
:1006700080E00895FC018281803478F4A081AE0F7F
:10068000BF2FB11D13966C9380818F5F8F73808312
:1006900082818F5F828381E0089580E00895FC016C
:1006A0008281811581F0A181AE0FBF2FB11D1396FC
:1006B0008C91DB018C9381818F5F8F738183828129
:1006C0008150828381E0089582E08093B00094E0BD
:1006D0009093B1008093700089EF8093B3000895E8
:1006E0002FB7F89460914B0370914C0380914D03A8
:1006F00090914E032FBF0895E4E6F0E080818F7B58
:100700008083E0E78081826080830895E0E7F0E005
:1007100080818D7F8083E4E680818064808308957A
:100720008FB7F89410924B0310924C0310924D0324
:1007300010924E038FBF0895EFB7F89420914B03AA
:1007400030914C0340914D0350914E03DC01CB019D
:10075000820F931FA41FB51F80934B0390934C03EC
:10076000A0934D03B0934E03EFBF0895EF92FF9215
:100770000F931F93EFB7F89420914B0330914C03E4
:1007800040914D0350914E0379018A01E61AF70A10
:10079000080B190BC701D80180934B0390934C03AE
:1007A000A0934D03B0934E03EFBF1F910F91FF90A5
:1007B000EF9008951F921FB61F9211248F939F935D
:1007C000AF93BF9380914B0390914C03A0914D0345
:1007D000B0914E030196A11DB11D80934B039093E0
:1007E0004C03A0934D03B0934E03BF91AF919F91E3
:1007F0008F911F901FBE1F901895CF93DF9300D04D
:100800000F92CDB7DEB789E191E08A839B83EA81BD
:10081000FB812191EA83FB832983622F84E290E0AC
:100820000E946802698185E290E00E947D028A81CF
:100830009B818D51914059F785E191E08A839B839B
:10084000EA81FB814191EA83FB836BE270E08AE2FB
:1008500090E00E9493028A819B818951914081F7A7
:100860000F900F900F90DF91CF910895DF92EF924C
:10087000FF920F931F93CF93DF9300D00F92CDB7CA
:10088000DEB799E1E92E91E0F92E1A821B82F70179
:10089000F081F9836F2F85E290E00E9487022AE1C0
:1008A0002A95F1F700C0E5E1F1E000E010E089B140
:1008B000D08090E00D2C02C0969587950A94E2F7BF
:1008C00080FD4AC08FEF99EF20E08150904020409A
:1008D000E1F700C0000089B190E00D2C02C09695B0
:1008E00087950A94E2F780FD37C0698185E290E040
:1008F0000E947D0281E090E07C0101C0EE0CDA9460
:10090000EAF789B190E08E2169810097D9F085E2FC
:100910000E947D02EA81FB81EE0FFF1FEE0FFF1F99
:10092000EB5FFE4FEA83FB83E00FF11F80810F90A6
:100930000F900F90DF91CF911F910F91FF90EF904B
:10094000DF90089585E20E9487028FE39CE901977A
:10095000F1F700C00000D5CF31960F5F1F4F043074
:10096000110509F0A4CFFFEFEF1AFF0A698185E2B4
:1009700090E00E947D028A819B8101968A839B83FD
:10098000049709F084CF80E0D2CF0E94A50078942C
:100990000E94F000FDCFA1E21A2EAA1BBB1BFD0195
:1009A0000DC0AA1FBB1FEE1FFF1FA217B307E4074E
:1009B000F50720F0A21BB30BE40BF50B661F771FA6
:1009C000881F991F1A9469F7609570958095909586
:1009D0009B01AC01BD01CF010895FC0181918617F7
:1009E00021F08823D9F7992708953197CF010895E9
:1009F000FB01DC018D91019080190110D9F3990B55
:100A00000895FB01DC014150504030F08D91019080
:100A1000801919F40020B9F7881B990B0895DC019F
:100A2000CB01FC01F999FECF06C0F2BDE1BDF89AF9
:100A3000319600B40D9241505040B8F70895F9999D
:100A4000FECF92BD81BDF89A992780B50895DC014B
:100A5000A40FB51F4150504048F0CB01840F951FA3
:100A60002E910E94380541505040D0F70895262F0E
:100A7000F999FECF92BD81BDF89A019700B4021694
:100A800039F01FBA20BD0FB6F894FA9AF99A0FBE42
:060A90000895F894FFCF69
:100A9600313737320031323341343536423738391F
:100AA600432A3023440706050403020100537461F8
:100AB60074653A2049444C450A0053746174653A9A
:100AC60020494E5055545F4157414954202D2065C9
:100AD6006E7465722050494E0A0053746174653A0B
:100AE600204143434553535F4752414E5445440AC0
:100AF6000050494E206C6F616465642066726F6DAC
:100B060020454550524F4D0A003137373200446573
:100B16006661756C742050494E2073746F726564FB
:100B260020696E20454550524F4D0A005379737423
:100B3600656D2072656164790A00436F6D6D616E43
:100B460064733A204E45572050494E3B3C6F6C64C7
:100B56003E3B3C6E65773E0A00436F6D6D616E6489
:100B66002072656A6563746564202D206E6F74203B
:100B7600696E2049444C452073746174650A004EC1
:100B860045572050494E3B00556E6B6E6F776E2071
:100B9600636F6D6D616E642E205573653A204E4508
:100BA600572050494E3B3C6F6C643E3B3C6E65772C
:100BB6003E0A0042616420666F726D61742E205594
:100BC60073653A204E45572050494E3B3C6F6C6446
:100BD6003E3B3C6E65773E0A0050494E206D75736C
:100BE600742062652034206469676974730A004F53
:100BF6006C642050494E20696E636F72726563742F
:100C06000A0050494E2075706461746564207375DE
:100C1600636365737366756C6C79210A000A436FAA
:100C26006D6D616E6420746F6F206C6F6E670A0065
:100C360054696D656F7574210A0057726F6E67206F
:100C460050494E210A0053657373696F6E20656EB5
:060C56006465640A000061
:00000001FF
